{
  "contractName": "PollStation",
  "abi": [
    {
      "anonymous": false,
      "inputs": [
        {
          "indexed": false,
          "internalType": "uint256",
          "name": "_pollId",
          "type": "uint256"
        },
        {
          "indexed": false,
          "internalType": "string",
          "name": "_title",
          "type": "string"
        },
        {
          "indexed": false,
          "internalType": "string[]",
          "name": "_options",
          "type": "string[]"
        },
        {
          "indexed": false,
          "internalType": "uint256",
          "name": "_expireDate",
          "type": "uint256"
        },
        {
          "indexed": false,
          "internalType": "uint256",
          "name": "_insertionDate",
          "type": "uint256"
        }
      ],
      "name": "NewPoll",
      "type": "event"
    },
    {
      "anonymous": false,
      "inputs": [
        {
          "indexed": true,
          "internalType": "uint256",
          "name": "_pollId",
          "type": "uint256"
        },
        {
          "indexed": false,
          "internalType": "uint8",
          "name": "_option",
          "type": "uint8"
        }
      ],
      "name": "NewVote",
      "type": "event"
    },
    {
      "anonymous": false,
      "inputs": [
        {
          "indexed": true,
          "internalType": "address",
          "name": "oldOwner",
          "type": "address"
        },
        {
          "indexed": true,
          "internalType": "address",
          "name": "newOwner",
          "type": "address"
        }
      ],
      "name": "OwnerSet",
      "type": "event"
    },
    {
      "inputs": [],
      "name": "MaxPollsPerAddress",
      "outputs": [
        {
          "internalType": "uint8",
          "name": "",
          "type": "uint8"
        }
      ],
      "stateMutability": "view",
      "type": "function",
      "constant": true
    },
    {
      "inputs": [
        {
          "internalType": "uint256",
          "name": "",
          "type": "uint256"
        }
      ],
      "name": "Polls",
      "outputs": [
        {
          "internalType": "address",
          "name": "Owner",
          "type": "address"
        },
        {
          "internalType": "string",
          "name": "Title",
          "type": "string"
        },
        {
          "internalType": "uint256",
          "name": "ExpireDate",
          "type": "uint256"
        },
        {
          "internalType": "uint256",
          "name": "InsertionDate",
          "type": "uint256"
        },
        {
          "internalType": "uint256",
          "name": "VotesCount",
          "type": "uint256"
        }
      ],
      "stateMutability": "view",
      "type": "function",
      "constant": true
    },
    {
      "inputs": [],
      "name": "TotalVotes",
      "outputs": [
        {
          "internalType": "uint256",
          "name": "",
          "type": "uint256"
        }
      ],
      "stateMutability": "view",
      "type": "function",
      "constant": true
    },
    {
      "inputs": [
        {
          "internalType": "address",
          "name": "",
          "type": "address"
        }
      ],
      "name": "addressToPollCount",
      "outputs": [
        {
          "internalType": "uint8",
          "name": "",
          "type": "uint8"
        }
      ],
      "stateMutability": "view",
      "type": "function",
      "constant": true
    },
    {
      "inputs": [
        {
          "internalType": "address",
          "name": "newOwner",
          "type": "address"
        }
      ],
      "name": "changeOwner",
      "outputs": [],
      "stateMutability": "nonpayable",
      "type": "function"
    },
    {
      "inputs": [],
      "name": "getOwner",
      "outputs": [
        {
          "internalType": "address",
          "name": "",
          "type": "address"
        }
      ],
      "stateMutability": "view",
      "type": "function",
      "constant": true
    },
    {
      "inputs": [
        {
          "internalType": "uint256",
          "name": "",
          "type": "uint256"
        },
        {
          "internalType": "uint256",
          "name": "",
          "type": "uint256"
        }
      ],
      "name": "pollIdToVotes",
      "outputs": [
        {
          "internalType": "address",
          "name": "Voter",
          "type": "address"
        },
        {
          "internalType": "uint8",
          "name": "Opinion",
          "type": "uint8"
        },
        {
          "internalType": "uint256",
          "name": "Date",
          "type": "uint256"
        }
      ],
      "stateMutability": "view",
      "type": "function",
      "constant": true
    },
    {
      "inputs": [
        {
          "internalType": "string",
          "name": "_title",
          "type": "string"
        },
        {
          "internalType": "string[]",
          "name": "_options",
          "type": "string[]"
        }
      ],
      "name": "createPoll",
      "outputs": [],
      "stateMutability": "payable",
      "type": "function",
      "payable": true
    },
    {
      "inputs": [
        {
          "internalType": "uint256",
          "name": "_pollId",
          "type": "uint256"
        },
        {
          "internalType": "uint8",
          "name": "_option",
          "type": "uint8"
        }
      ],
      "name": "vote",
      "outputs": [],
      "stateMutability": "payable",
      "type": "function",
      "payable": true
    },
    {
      "inputs": [],
      "name": "getPolls",
      "outputs": [
        {
          "components": [
            {
              "internalType": "address",
              "name": "Owner",
              "type": "address"
            },
            {
              "internalType": "string",
              "name": "Title",
              "type": "string"
            },
            {
              "internalType": "string[]",
              "name": "Options",
              "type": "string[]"
            },
            {
              "internalType": "uint256",
              "name": "ExpireDate",
              "type": "uint256"
            },
            {
              "internalType": "uint256",
              "name": "InsertionDate",
              "type": "uint256"
            },
            {
              "internalType": "uint256",
              "name": "VotesCount",
              "type": "uint256"
            }
          ],
          "internalType": "struct PollHelper.Poll[]",
          "name": "",
          "type": "tuple[]"
        }
      ],
      "stateMutability": "view",
      "type": "function",
      "constant": true
    },
    {
      "inputs": [
        {
          "internalType": "uint256",
          "name": "_pollId",
          "type": "uint256"
        }
      ],
      "name": "getPollVotes",
      "outputs": [
        {
          "components": [
            {
              "internalType": "address",
              "name": "Voter",
              "type": "address"
            },
            {
              "internalType": "uint8",
              "name": "Opinion",
              "type": "uint8"
            },
            {
              "internalType": "uint256",
              "name": "Date",
              "type": "uint256"
            }
          ],
          "internalType": "struct PollHelper.Vote[]",
          "name": "",
          "type": "tuple[]"
        }
      ],
      "stateMutability": "view",
      "type": "function",
      "constant": true
    },
    {
      "inputs": [
        {
          "internalType": "uint256",
          "name": "_pollId",
          "type": "uint256"
        }
      ],
      "name": "getPoll",
      "outputs": [
        {
          "components": [
            {
              "internalType": "address",
              "name": "Owner",
              "type": "address"
            },
            {
              "internalType": "string",
              "name": "Title",
              "type": "string"
            },
            {
              "internalType": "string[]",
              "name": "Options",
              "type": "string[]"
            },
            {
              "internalType": "uint256",
              "name": "ExpireDate",
              "type": "uint256"
            },
            {
              "internalType": "uint256",
              "name": "InsertionDate",
              "type": "uint256"
            },
            {
              "internalType": "uint256",
              "name": "VotesCount",
              "type": "uint256"
            }
          ],
          "internalType": "struct PollHelper.Poll",
          "name": "",
          "type": "tuple"
        }
      ],
      "stateMutability": "view",
      "type": "function",
      "constant": true
    },
    {
      "inputs": [
        {
          "internalType": "uint256",
          "name": "_pollId",
          "type": "uint256"
        }
      ],
      "name": "hasVoted",
      "outputs": [
        {
          "internalType": "bool",
          "name": "",
          "type": "bool"
        },
        {
          "internalType": "int8",
          "name": "",
          "type": "int8"
        }
      ],
      "stateMutability": "view",
      "type": "function",
      "constant": true
    }
  ],
  "bytecode": "0x60806040526001600260006101000a81548160ff021916908360ff1602179055506005600260016101000a81548160ff021916908360ff16021790555060206002806101000a81548160ff021916908360ff16021790555034801561006357600080fd5b50336000806101000a81548173ffffffffffffffffffffffffffffffffffffffff021916908373ffffffffffffffffffffffffffffffffffffffff16021790555060008054906101000a900473ffffffffffffffffffffffffffffffffffffffff1673ffffffffffffffffffffffffffffffffffffffff16600073ffffffffffffffffffffffffffffffffffffffff167f342827c97908e5e2f71151c08502a66d44b6f758e3ac2f1de95f02eb95f0a73560405160405180910390a36129148061012e6000396000f3fe6080604052600436106100c25760003560e01c8063893d20e81161007f578063a6f9dae111610059578063a6f9dae114610266578063adc7796d1461028f578063bbff7166146102ce578063ecca031f1461030b576100c2565b8063893d20e8146101f4578063943e82161461021f57806398c400ef1461023b576100c2565b806309aaf058146100c7578063120fe89b1461010857806316003f8f146101335780631a8cbcaa146101705780632fd73f02146101ad5780637e3d71c3146101d8575b600080fd5b3480156100d357600080fd5b506100ee60048036038101906100e99190611a98565b610349565b6040516100ff9594939291906121cf565b60405180910390f35b34801561011457600080fd5b5061011d610437565b60405161012a9190612260565b60405180910390f35b34801561013f57600080fd5b5061015a60048036038101906101559190611a03565b610675565b604051610167919061244b565b60405180910390f35b34801561017c57600080fd5b5061019760048036038101906101929190611a98565b610695565b6040516101a491906123ad565b60405180910390f35b3480156101b957600080fd5b506101c261091f565b6040516101cf91906123cf565b60405180910390f35b6101f260048036038101906101ed9190611a2c565b610925565b005b34801561020057600080fd5b50610209610cb8565b60405161021691906121b4565b60405180910390f35b61023960048036038101906102349190611afd565b610ce1565b005b34801561024757600080fd5b50610250611010565b60405161025d919061244b565b60405180910390f35b34801561027257600080fd5b5061028d60048036038101906102889190611a03565b611023565b005b34801561029b57600080fd5b506102b660048036038101906102b19190611ac1565b61116e565b6040516102c593929190612229565b60405180910390f35b3480156102da57600080fd5b506102f560048036038101906102f09190611a98565b6111e2565b6040516103029190612282565b60405180910390f35b34801561031757600080fd5b50610332600480360381019061032d9190611a98565b61131a565b6040516103409291906122a4565b60405180910390f35b6005818154811061035957600080fd5b90600052602060002090600602016000915090508060000160009054906101000a900473ffffffffffffffffffffffffffffffffffffffff16908060010180546103a290612756565b80601f01602080910402602001604051908101604052809291908181526020018280546103ce90612756565b801561041b5780601f106103f05761010080835404028352916020019161041b565b820191906000526020600020905b8154815290600101906020018083116103fe57829003601f168201915b5050505050908060030154908060040154908060050154905085565b60606005805480602002602001604051908101604052809291908181526020016000905b8282101561066c57838290600052602060002090600602016040518060c00160405290816000820160009054906101000a900473ffffffffffffffffffffffffffffffffffffffff1673ffffffffffffffffffffffffffffffffffffffff1673ffffffffffffffffffffffffffffffffffffffff1681526020016001820180546104e490612756565b80601f016020809104026020016040519081016040528092919081815260200182805461051090612756565b801561055d5780601f106105325761010080835404028352916020019161055d565b820191906000526020600020905b81548152906001019060200180831161054057829003601f168201915b5050505050815260200160028201805480602002602001604051908101604052809291908181526020016000905b828210156106375783829060005260206000200180546105aa90612756565b80601f01602080910402602001604051908101604052809291908181526020018280546105d690612756565b80156106235780601f106105f857610100808354040283529160200191610623565b820191906000526020600020905b81548152906001019060200180831161060657829003601f168201915b50505050508152602001906001019061058b565b50505050815260200160038201548152602001600482015481526020016005820154815250508152602001906001019061045b565b50505050905090565b60036020528060005260406000206000915054906101000a900460ff1681565b61069d611722565b8160058054905081106106e5576040517f08c379a00000000000000000000000000000000000000000000000000000000081526004016106dc906122cd565b60405180910390fd5b6005838154811061071f577f4e487b7100000000000000000000000000000000000000000000000000000000600052603260045260246000fd5b90600052602060002090600602016040518060c00160405290816000820160009054906101000a900473ffffffffffffffffffffffffffffffffffffffff1673ffffffffffffffffffffffffffffffffffffffff1673ffffffffffffffffffffffffffffffffffffffff16815260200160018201805461079e90612756565b80601f01602080910402602001604051908101604052809291908181526020018280546107ca90612756565b80156108175780601f106107ec57610100808354040283529160200191610817565b820191906000526020600020905b8154815290600101906020018083116107fa57829003601f168201915b5050505050815260200160028201805480602002602001604051908101604052809291908181526020016000905b828210156108f157838290600052602060002001805461086490612756565b80601f016020809104026020016040519081016040528092919081815260200182805461089090612756565b80156108dd5780601f106108b2576101008083540402835291602001916108dd565b820191906000526020600020905b8154815290600101906020018083116108c057829003601f168201915b505050505081526020019060010190610845565b5050505081526020016003820154815260200160048201548152602001600582015481525050915050919050565b60015481565b600260019054906101000a900460ff1660ff16600360003373ffffffffffffffffffffffffffffffffffffffff1673ffffffffffffffffffffffffffffffffffffffff16815260200190815260200160002060009054906101000a900460ff1660ff16106109c8576040517f08c379a00000000000000000000000000000000000000000000000000000000081526004016109bf9061238d565b60405180910390fd5b6109d18261151f565b15610a11576040517f08c379a0000000000000000000000000000000000000000000000000000000008152600401610a089061230d565b60405180910390fd5b6003815110158015610a34575060028054906101000a900460ff1660ff16815111155b610a73576040517f08c379a0000000000000000000000000000000000000000000000000000000008152600401610a6a9061234d565b60405180910390fd5b600042905060006040518060c001604052803373ffffffffffffffffffffffffffffffffffffffff16815260200185815260200184815260200162015180600260009054906101000a900460ff1660ff16610ace9190612632565b62ffffff1684610ade91906125dc565b815260200183815260200160008152509050600581908060018154018082558091505060019003906000526020600020906006020160009091909190915060008201518160000160006101000a81548173ffffffffffffffffffffffffffffffffffffffff021916908373ffffffffffffffffffffffffffffffffffffffff1602179055506020820151816001019080519060200190610b7f92919061176e565b506040820151816002019080519060200190610b9c9291906117f4565b50606082015181600301556080820151816004015560a0820151816005015550507fd657790db061bbe3b34070f86c9a303bcea77ba90b3a4365767ddca573f008626001600580549050610bf0919061266f565b858562015180600260009054906101000a900460ff1660ff16610c139190612632565b62ffffff1686610c2391906125dc565b86604051610c359594939291906123ea565b60405180910390a1600360003373ffffffffffffffffffffffffffffffffffffffff1673ffffffffffffffffffffffffffffffffffffffff168152602001908152602001600020600081819054906101000a900460ff1680929190610c99906127d1565b91906101000a81548160ff021916908360ff1602179055505050505050565b60008060009054906101000a900473ffffffffffffffffffffffffffffffffffffffff16905090565b81610cec3382611544565b15610d2c576040517f08c379a0000000000000000000000000000000000000000000000000000000008152600401610d239061236d565b60405180910390fd5b826005805490508110610d74576040517f08c379a0000000000000000000000000000000000000000000000000000000008152600401610d6b906122cd565b60405180910390fd5b838360ff16600060058381548110610db5577f4e487b7100000000000000000000000000000000000000000000000000000000600052603260045260246000fd5b906000526020600020906006020160020180549050905060008210158015610ddd5750808211155b610e1c576040517f08c379a0000000000000000000000000000000000000000000000000000000008152600401610e139061232d565b60405180910390fd5b6004600088815260200190815260200160002060405180606001604052803373ffffffffffffffffffffffffffffffffffffffff1681526020018860ff1681526020014263ffffffff16815250908060018154018082558091505060019003906000526020600020906002020160009091909190915060008201518160000160006101000a81548173ffffffffffffffffffffffffffffffffffffffff021916908373ffffffffffffffffffffffffffffffffffffffff16021790555060208201518160000160146101000a81548160ff021916908360ff160217905550604082015181600101555050610f65600160058981548110610f45577f4e487b7100000000000000000000000000000000000000000000000000000000600052603260045260246000fd5b90600052602060002090600602016005015461170c90919063ffffffff16565b60058881548110610f9f577f4e487b7100000000000000000000000000000000000000000000000000000000600052603260045260246000fd5b906000526020600020906006020160050181905550867f518ea54e6458e92745b813a5e920bb3960588399be63d2dffad965b5f8e7336987604051610fe4919061244b565b60405180910390a26110016001805461170c90919063ffffffff16565b60018190555050505050505050565b600260019054906101000a900460ff1681565b60008054906101000a900473ffffffffffffffffffffffffffffffffffffffff1673ffffffffffffffffffffffffffffffffffffffff163373ffffffffffffffffffffffffffffffffffffffff16146110b1576040517f08c379a00000000000000000000000000000000000000000000000000000000081526004016110a8906122ed565b60405180910390fd5b8073ffffffffffffffffffffffffffffffffffffffff1660008054906101000a900473ffffffffffffffffffffffffffffffffffffffff1673ffffffffffffffffffffffffffffffffffffffff167f342827c97908e5e2f71151c08502a66d44b6f758e3ac2f1de95f02eb95f0a73560405160405180910390a3806000806101000a81548173ffffffffffffffffffffffffffffffffffffffff021916908373ffffffffffffffffffffffffffffffffffffffff16021790555050565b6004602052816000526040600020818154811061118a57600080fd5b9060005260206000209060020201600091509150508060000160009054906101000a900473ffffffffffffffffffffffffffffffffffffffff16908060000160149054906101000a900460ff16908060010154905083565b606081600580549050811061122c576040517f08c379a0000000000000000000000000000000000000000000000000000000008152600401611223906122cd565b60405180910390fd5b60046000848152602001908152602001600020805480602002602001604051908101604052809291908181526020016000905b8282101561130e57838290600052602060002090600202016040518060600160405290816000820160009054906101000a900473ffffffffffffffffffffffffffffffffffffffff1673ffffffffffffffffffffffffffffffffffffffff1673ffffffffffffffffffffffffffffffffffffffff1681526020016000820160149054906101000a900460ff1660ff1660ff1681526020016001820154815250508152602001906001019061125f565b50505050915050919050565b6000806000807fffffffffffffffffffffffffffffffffffffffffffffffffffffffffffffffff9050600060046000878152602001908152602001600020805480602002602001604051908101604052809291908181526020016000905b8282101561142757838290600052602060002090600202016040518060600160405290816000820160009054906101000a900473ffffffffffffffffffffffffffffffffffffffff1673ffffffffffffffffffffffffffffffffffffffff1673ffffffffffffffffffffffffffffffffffffffff1681526020016000820160149054906101000a900460ff1660ff1660ff16815260200160018201548152505081526020019060010190611378565b50505050905060005b8151811015611510573373ffffffffffffffffffffffffffffffffffffffff16828281518110611489577f4e487b7100000000000000000000000000000000000000000000000000000000600052603260045260246000fd5b60200260200101516000015173ffffffffffffffffffffffffffffffffffffffff1614156114fd57600193508181815181106114ee577f4e487b7100000000000000000000000000000000000000000000000000000000600052603260045260246000fd5b60200260200101516020015192505b808061150890612788565b915050611430565b50828294509450505050915091565b60008082905060008151141561153957600191505061153f565b60009150505b919050565b600080600090506000600460008581526020019081526020016000208054905090506000811415611579578192505050611706565b600060046000868152602001908152602001600020805480602002602001604051908101604052809291908181526020016000905b8282101561165d57838290600052602060002090600202016040518060600160405290816000820160009054906101000a900473ffffffffffffffffffffffffffffffffffffffff1673ffffffffffffffffffffffffffffffffffffffff1673ffffffffffffffffffffffffffffffffffffffff1681526020016000820160149054906101000a900460ff1660ff1660ff168152602001600182015481525050815260200190600101906115ae565b50505050905060005b828110156116fe578673ffffffffffffffffffffffffffffffffffffffff168282815181106116be577f4e487b7100000000000000000000000000000000000000000000000000000000600052603260045260246000fd5b60200260200101516000015173ffffffffffffffffffffffffffffffffffffffff1614156116eb57600193505b80806116f690612788565b915050611666565b508293505050505b92915050565b6000818361171a91906125dc565b905092915050565b6040518060c00160405280600073ffffffffffffffffffffffffffffffffffffffff16815260200160608152602001606081526020016000815260200160008152602001600081525090565b82805461177a90612756565b90600052602060002090601f01602090048101928261179c57600085556117e3565b82601f106117b557805160ff19168380011785556117e3565b828001600101855582156117e3579182015b828111156117e25782518255916020019190600101906117c7565b5b5090506117f09190611854565b5090565b828054828255906000526020600020908101928215611843579160200282015b8281111561184257825182908051906020019061183292919061176e565b5091602001919060010190611814565b5b5090506118509190611871565b5090565b5b8082111561186d576000816000905550600101611855565b5090565b5b8082111561189157600081816118889190611895565b50600101611872565b5090565b5080546118a190612756565b6000825580601f106118b357506118d2565b601f0160209004906000526020600020908101906118d19190611854565b5b50565b60006118e86118e384612497565b612466565b9050808382526020820190508260005b85811015611928578135850161190e88826119af565b8452602084019350602083019250506001810190506118f8565b5050509392505050565b6000611945611940846124c3565b612466565b90508281526020810184848401111561195d57600080fd5b611968848285612714565b509392505050565b60008135905061197f81612899565b92915050565b600082601f83011261199657600080fd5b81356119a68482602086016118d5565b91505092915050565b600082601f8301126119c057600080fd5b81356119d0848260208601611932565b91505092915050565b6000813590506119e8816128b0565b92915050565b6000813590506119fd816128c7565b92915050565b600060208284031215611a1557600080fd5b6000611a2384828501611970565b91505092915050565b60008060408385031215611a3f57600080fd5b600083013567ffffffffffffffff811115611a5957600080fd5b611a65858286016119af565b925050602083013567ffffffffffffffff811115611a8257600080fd5b611a8e85828601611985565b9150509250929050565b600060208284031215611aaa57600080fd5b6000611ab8848285016119d9565b91505092915050565b60008060408385031215611ad457600080fd5b6000611ae2858286016119d9565b9250506020611af3858286016119d9565b9150509250929050565b60008060408385031215611b1057600080fd5b6000611b1e858286016119d9565b9250506020611b2f858286016119ee565b9150509250929050565b6000611b458383611d72565b905092915050565b6000611b598383612016565b905092915050565b6000611b6d8383612136565b60608301905092915050565b611b82816126a3565b82525050565b611b91816126a3565b82525050565b6000611ba282612523565b611bac8185612576565b935083602082028501611bbe856124f3565b8060005b85811015611bfa5784840389528151611bdb8582611b39565b9450611be68361254f565b925060208a01995050600181019050611bc2565b50829750879550505050505092915050565b6000611c1782612523565b611c218185612587565b935083602082028501611c33856124f3565b8060005b85811015611c6f5784840389528151611c508582611b39565b9450611c5b8361254f565b925060208a01995050600181019050611c37565b50829750879550505050505092915050565b6000611c8c8261252e565b611c968185612598565b935083602082028501611ca885612503565b8060005b85811015611ce45784840389528151611cc58582611b4d565b9450611cd08361255c565b925060208a01995050600181019050611cac565b50829750879550505050505092915050565b6000611d0182612539565b611d0b81856125a9565b9350611d1683612513565b8060005b83811015611d47578151611d2e8882611b61565b9750611d3983612569565b925050600181019050611d1a565b5085935050505092915050565b611d5d816126b5565b82525050565b611d6c816126c1565b82525050565b6000611d7d82612544565b611d8781856125ba565b9350611d97818560208601612723565b611da081612888565b840191505092915050565b6000611db682612544565b611dc081856125cb565b9350611dd0818560208601612723565b611dd981612888565b840191505092915050565b6000611df16011836125cb565b91507f496e76616c696420506f6c6c4964203a2f0000000000000000000000000000006000830152602082019050919050565b6000611e316013836125cb565b91507f43616c6c6572206973206e6f74206f776e6572000000000000000000000000006000830152602082019050919050565b6000611e716017836125cb565b91507f5469746c652063616e277420626520656d707479203a2f0000000000000000006000830152602082019050919050565b6000611eb16011836125cb565b91507f496e76616c6964204f7074696f6e203a280000000000000000000000000000006000830152602082019050919050565b6000611ef16024836125cb565b91507f596f752063616e206f6e6c7920646566696e65203320746f203332206f70746960008301527f6f6e7321000000000000000000000000000000000000000000000000000000006020830152604082019050919050565b6000611f576025836125cb565b91507f596f75206861766520616c726561647920766f74656420666f7220746869732060008301527f706f6c6c210000000000000000000000000000000000000000000000000000006020830152604082019050919050565b6000611fbd6026836125cb565b91507f596f7520686176652072656163686564206d617820706f6c6c2070657220616460008301527f64726573732100000000000000000000000000000000000000000000000000006020830152604082019050919050565b600060c08301600083015161202e6000860182611b79565b50602083015184820360208601526120468282611d72565b915050604083015184820360408601526120608282611b97565b91505060608301516120756060860182612178565b5060808301516120886080860182612178565b5060a083015161209b60a0860182612178565b508091505092915050565b600060c0830160008301516120be6000860182611b79565b50602083015184820360208601526120d68282611d72565b915050604083015184820360408601526120f08282611b97565b91505060608301516121056060860182612178565b5060808301516121186080860182612178565b5060a083015161212b60a0860182612178565b508091505092915050565b60608201600082015161214c6000850182611b79565b50602082015161215f6020850182612196565b5060408201516121726040850182612178565b50505050565b612181816126fd565b82525050565b612190816126fd565b82525050565b61219f81612707565b82525050565b6121ae81612707565b82525050565b60006020820190506121c96000830184611b88565b92915050565b600060a0820190506121e46000830188611b88565b81810360208301526121f68187611dab565b90506122056040830186612187565b6122126060830185612187565b61221f6080830184612187565b9695505050505050565b600060608201905061223e6000830186611b88565b61224b60208301856121a5565b6122586040830184612187565b949350505050565b6000602082019050818103600083015261227a8184611c81565b905092915050565b6000602082019050818103600083015261229c8184611cf6565b905092915050565b60006040820190506122b96000830185611d54565b6122c66020830184611d63565b9392505050565b600060208201905081810360008301526122e681611de4565b9050919050565b6000602082019050818103600083015261230681611e24565b9050919050565b6000602082019050818103600083015261232681611e64565b9050919050565b6000602082019050818103600083015261234681611ea4565b9050919050565b6000602082019050818103600083015261236681611ee4565b9050919050565b6000602082019050818103600083015261238681611f4a565b9050919050565b600060208201905081810360008301526123a681611fb0565b9050919050565b600060208201905081810360008301526123c781846120a6565b905092915050565b60006020820190506123e46000830184612187565b92915050565b600060a0820190506123ff6000830188612187565b81810360208301526124118187611dab565b905081810360408301526124258186611c0c565b90506124346060830185612187565b6124416080830184612187565b9695505050505050565b600060208201905061246060008301846121a5565b92915050565b6000604051905081810181811067ffffffffffffffff8211171561248d5761248c612859565b5b8060405250919050565b600067ffffffffffffffff8211156124b2576124b1612859565b5b602082029050602081019050919050565b600067ffffffffffffffff8211156124de576124dd612859565b5b601f19601f8301169050602081019050919050565b6000819050602082019050919050565b6000819050602082019050919050565b6000819050602082019050919050565b600081519050919050565b600081519050919050565b600081519050919050565b600081519050919050565b6000602082019050919050565b6000602082019050919050565b6000602082019050919050565b600082825260208201905092915050565b600082825260208201905092915050565b600082825260208201905092915050565b600082825260208201905092915050565b600082825260208201905092915050565b600082825260208201905092915050565b60006125e7826126fd565b91506125f2836126fd565b9250827fffffffffffffffffffffffffffffffffffffffffffffffffffffffffffffffff03821115612627576126266127fb565b5b828201905092915050565b600061263d826126ee565b9150612648836126ee565b92508162ffffff0483118215151615612664576126636127fb565b5b828202905092915050565b600061267a826126fd565b9150612685836126fd565b925082821015612698576126976127fb565b5b828203905092915050565b60006126ae826126ce565b9050919050565b60008115159050919050565b60008160000b9050919050565b600073ffffffffffffffffffffffffffffffffffffffff82169050919050565b600062ffffff82169050919050565b6000819050919050565b600060ff82169050919050565b82818337600083830152505050565b60005b83811015612741578082015181840152602081019050612726565b83811115612750576000848401525b50505050565b6000600282049050600182168061276e57607f821691505b602082108114156127825761278161282a565b5b50919050565b6000612793826126fd565b91507fffffffffffffffffffffffffffffffffffffffffffffffffffffffffffffffff8214156127c6576127c56127fb565b5b600182019050919050565b60006127dc82612707565b915060ff8214156127f0576127ef6127fb565b5b600182019050919050565b7f4e487b7100000000000000000000000000000000000000000000000000000000600052601160045260246000fd5b7f4e487b7100000000000000000000000000000000000000000000000000000000600052602260045260246000fd5b7f4e487b7100000000000000000000000000000000000000000000000000000000600052604160045260246000fd5b6000601f19601f8301169050919050565b6128a2816126a3565b81146128ad57600080fd5b50565b6128b9816126fd565b81146128c457600080fd5b50565b6128d081612707565b81146128db57600080fd5b5056fea26469706673582212205e3e1154431dd6733a45385bd7f7b7675fefbeb2542e55f24f35d4fc77b888ac64736f6c63430008000033",
  "immutableReferences": {},
  "source": "// SPDX-License-Identifier: MIT\npragma solidity >=0.4.22 <0.9.0;\n\nimport \"./PollHelper.sol\";\n\ncontract PollStation is PollHelper {\n    using SafeMath for uint256;\n\n    function createPoll(string memory _title, string[] memory _options)\n        public\n        payable\n        pollLimit\n    {\n        require(!isStringEmpty(_title), \"Title can't be empty :/\");\n        require(\n            _options.length >= 3 && _options.length <= MaxPollOptions,\n            \"You can only define 3 to 32 options!\"\n        );\n\n        // push the new poll to polls list\n        uint256 time = block.timestamp;\n        Poll memory poll = Poll(\n            msg.sender,\n            _title,\n            _options,\n            time + (ExpireAfter * 1 days),\n            time,\n            0\n        );\n        Polls.push(poll);\n\n        // fires the NewPoll Event\n        emit NewPoll(\n            Polls.length - 1,\n            _title,\n            _options,\n            time + (ExpireAfter * 1 days),\n            time\n        );\n\n        //increace the poll count of the address\n        addressToPollCount[msg.sender]++;\n    }\n\n    function vote(uint256 _pollId, uint8 _option)\n        external\n        payable\n        voteOnce(_pollId)\n        validatePollId(_pollId)\n        validateOption(_pollId, _option)\n    {\n        //push the new vote to poll's vote list\n        pollIdToVotes[_pollId].push(\n            Vote(msg.sender, _option, uint32(block.timestamp))\n        );\n\n        //increase the vote count;\n        Polls[_pollId].VotesCount = Polls[_pollId].VotesCount.add(1);\n\n        // fires the NewVote Event\n        emit NewVote(_pollId, _option);\n\n        //increase the total votes\n        TotalVotes = TotalVotes.add(1);\n    }\n\n    function getPolls() external view returns (Poll[] memory) {\n        return Polls;\n    }\n\n    function getPollVotes(uint256 _pollId)\n        external\n        view\n        validatePollId(_pollId)\n        returns (Vote[] memory)\n    {\n        return pollIdToVotes[_pollId];\n    }\n\n    function getPoll(uint256 _pollId)\n        external\n        view\n        validatePollId(_pollId)\n        returns (Poll memory)\n    {\n        return Polls[_pollId];\n    }\n\n    // voteOnce(_pollId)\n    function hasVoted(uint256 _pollId) external view returns (bool, int8) {\n        bool _voted = false;\n        int8 _option = -1;\n\n        Vote[] memory voteList = pollIdToVotes[_pollId];\n        for (uint256 i = 0; i < voteList.length; i++) {\n            if (voteList[i].Voter == msg.sender) {\n                _voted = true;\n                _option = int8(voteList[i].Opinion);\n            }\n        }\n        return (_voted, _option);\n    }\n}\n",
  "sourcePath": "D:\\Dev\\GitHub\\yt-deapp-poll-station-test\\backend\\contracts\\PollStation.sol",
  "compiler": {
    "name": "solc",
    "version": "0.8.0+commit.c7dfd78e.Emscripten.clang"
  },
  "schemaVersion": "3.4.6",
  "updatedAt": "2022-04-02T08:40:23.581Z",
  "networkType": "ethereum",
  "devdoc": {
    "kind": "dev",
    "methods": {
      "changeOwner(address)": {
        "details": "Change owner",
        "params": {
          "newOwner": "address of new owner"
        }
      },
      "getOwner()": {
        "details": "Return owner address ",
        "returns": {
          "_0": "address of owner"
        }
      }
    },
    "version": 1
  },
  "userdoc": {
    "kind": "user",
    "methods": {},
    "version": 1
  }
}