{
  "contractName": "PollHelper",
  "abi": [
    {
      "anonymous": false,
      "inputs": [
        {
          "indexed": false,
          "internalType": "uint256",
          "name": "_pollId",
          "type": "uint256"
        },
        {
          "indexed": false,
          "internalType": "string",
          "name": "_title",
          "type": "string"
        },
        {
          "indexed": false,
          "internalType": "string[]",
          "name": "_options",
          "type": "string[]"
        },
        {
          "indexed": false,
          "internalType": "uint256",
          "name": "_expireDate",
          "type": "uint256"
        },
        {
          "indexed": false,
          "internalType": "uint256",
          "name": "_insertionDate",
          "type": "uint256"
        }
      ],
      "name": "NewPoll",
      "type": "event"
    },
    {
      "anonymous": false,
      "inputs": [
        {
          "indexed": true,
          "internalType": "uint256",
          "name": "_pollId",
          "type": "uint256"
        },
        {
          "indexed": false,
          "internalType": "uint8",
          "name": "_option",
          "type": "uint8"
        }
      ],
      "name": "NewVote",
      "type": "event"
    },
    {
      "anonymous": false,
      "inputs": [
        {
          "indexed": true,
          "internalType": "address",
          "name": "oldOwner",
          "type": "address"
        },
        {
          "indexed": true,
          "internalType": "address",
          "name": "newOwner",
          "type": "address"
        }
      ],
      "name": "OwnerSet",
      "type": "event"
    },
    {
      "inputs": [],
      "name": "MaxPollsPerAddress",
      "outputs": [
        {
          "internalType": "uint8",
          "name": "",
          "type": "uint8"
        }
      ],
      "stateMutability": "view",
      "type": "function"
    },
    {
      "inputs": [
        {
          "internalType": "uint256",
          "name": "",
          "type": "uint256"
        }
      ],
      "name": "Polls",
      "outputs": [
        {
          "internalType": "address",
          "name": "Owner",
          "type": "address"
        },
        {
          "internalType": "string",
          "name": "Title",
          "type": "string"
        },
        {
          "internalType": "uint256",
          "name": "ExpireDate",
          "type": "uint256"
        },
        {
          "internalType": "uint256",
          "name": "InsertionDate",
          "type": "uint256"
        },
        {
          "internalType": "uint256",
          "name": "VotesCount",
          "type": "uint256"
        }
      ],
      "stateMutability": "view",
      "type": "function"
    },
    {
      "inputs": [],
      "name": "TotalVotes",
      "outputs": [
        {
          "internalType": "uint256",
          "name": "",
          "type": "uint256"
        }
      ],
      "stateMutability": "view",
      "type": "function"
    },
    {
      "inputs": [
        {
          "internalType": "address",
          "name": "",
          "type": "address"
        }
      ],
      "name": "addressToPollCount",
      "outputs": [
        {
          "internalType": "uint8",
          "name": "",
          "type": "uint8"
        }
      ],
      "stateMutability": "view",
      "type": "function"
    },
    {
      "inputs": [
        {
          "internalType": "address",
          "name": "newOwner",
          "type": "address"
        }
      ],
      "name": "changeOwner",
      "outputs": [],
      "stateMutability": "nonpayable",
      "type": "function"
    },
    {
      "inputs": [],
      "name": "getOwner",
      "outputs": [
        {
          "internalType": "address",
          "name": "",
          "type": "address"
        }
      ],
      "stateMutability": "view",
      "type": "function"
    },
    {
      "inputs": [
        {
          "internalType": "uint256",
          "name": "",
          "type": "uint256"
        },
        {
          "internalType": "uint256",
          "name": "",
          "type": "uint256"
        }
      ],
      "name": "pollIdToVotes",
      "outputs": [
        {
          "internalType": "address",
          "name": "Voter",
          "type": "address"
        },
        {
          "internalType": "uint8",
          "name": "Opinion",
          "type": "uint8"
        },
        {
          "internalType": "uint256",
          "name": "Date",
          "type": "uint256"
        }
      ],
      "stateMutability": "view",
      "type": "function"
    }
  ],
  "bytecode": "0x60806040526001600260006101000a81548160ff021916908360ff1602179055506005600260016101000a81548160ff021916908360ff16021790555060206002806101000a81548160ff021916908360ff16021790555034801561006357600080fd5b50336000806101000a81548173ffffffffffffffffffffffffffffffffffffffff021916908373ffffffffffffffffffffffffffffffffffffffff16021790555060008054906101000a900473ffffffffffffffffffffffffffffffffffffffff1673ffffffffffffffffffffffffffffffffffffffff16600073ffffffffffffffffffffffffffffffffffffffff167f342827c97908e5e2f71151c08502a66d44b6f758e3ac2f1de95f02eb95f0a73560405160405180910390a361086b8061012e6000396000f3fe608060405234801561001057600080fd5b506004361061007d5760003560e01c8063893d20e81161005b578063893d20e81461010457806398c400ef14610122578063a6f9dae114610140578063adc7796d1461015c5761007d565b806309aaf0581461008257806316003f8f146100b65780632fd73f02146100e6575b600080fd5b61009c600480360381019061009791906104f0565b61018e565b6040516100ad959493929190610616565b60405180910390f35b6100d060048036038101906100cb91906104c7565b61027c565b6040516100dd91906106e2565b60405180910390f35b6100ee61029c565b6040516100fb91906106c7565b60405180910390f35b61010c6102a2565b60405161011991906105fb565b60405180910390f35b61012a6102cb565b60405161013791906106e2565b60405180910390f35b61015a600480360381019061015591906104c7565b6102de565b005b61017660048036038101906101719190610519565b610429565b60405161018593929190610670565b60405180910390f35b6005818154811061019e57600080fd5b90600052602060002090600602016000915090508060000160009054906101000a900473ffffffffffffffffffffffffffffffffffffffff16908060010180546101e790610795565b80601f016020809104026020016040519081016040528092919081815260200182805461021390610795565b80156102605780601f1061023557610100808354040283529160200191610260565b820191906000526020600020905b81548152906001019060200180831161024357829003601f168201915b5050505050908060030154908060040154908060050154905085565b60036020528060005260406000206000915054906101000a900460ff1681565b60015481565b60008060009054906101000a900473ffffffffffffffffffffffffffffffffffffffff16905090565b600260019054906101000a900460ff1681565b60008054906101000a900473ffffffffffffffffffffffffffffffffffffffff1673ffffffffffffffffffffffffffffffffffffffff163373ffffffffffffffffffffffffffffffffffffffff161461036c576040517f08c379a0000000000000000000000000000000000000000000000000000000008152600401610363906106a7565b60405180910390fd5b8073ffffffffffffffffffffffffffffffffffffffff1660008054906101000a900473ffffffffffffffffffffffffffffffffffffffff1673ffffffffffffffffffffffffffffffffffffffff167f342827c97908e5e2f71151c08502a66d44b6f758e3ac2f1de95f02eb95f0a73560405160405180910390a3806000806101000a81548173ffffffffffffffffffffffffffffffffffffffff021916908373ffffffffffffffffffffffffffffffffffffffff16021790555050565b6004602052816000526040600020818154811061044557600080fd5b9060005260206000209060020201600091509150508060000160009054906101000a900473ffffffffffffffffffffffffffffffffffffffff16908060000160149054906101000a900460ff16908060010154905083565b6000813590506104ac81610807565b92915050565b6000813590506104c18161081e565b92915050565b6000602082840312156104d957600080fd5b60006104e78482850161049d565b91505092915050565b60006020828403121561050257600080fd5b6000610510848285016104b2565b91505092915050565b6000806040838503121561052c57600080fd5b600061053a858286016104b2565b925050602061054b858286016104b2565b9150509250929050565b61055e81610719565b82525050565b600061056f826106fd565b6105798185610708565b9350610589818560208601610762565b610592816107f6565b840191505092915050565b60006105aa601383610708565b91507f43616c6c6572206973206e6f74206f776e6572000000000000000000000000006000830152602082019050919050565b6105e68161074b565b82525050565b6105f581610755565b82525050565b60006020820190506106106000830184610555565b92915050565b600060a08201905061062b6000830188610555565b818103602083015261063d8187610564565b905061064c60408301866105dd565b61065960608301856105dd565b61066660808301846105dd565b9695505050505050565b60006060820190506106856000830186610555565b61069260208301856105ec565b61069f60408301846105dd565b949350505050565b600060208201905081810360008301526106c08161059d565b9050919050565b60006020820190506106dc60008301846105dd565b92915050565b60006020820190506106f760008301846105ec565b92915050565b600081519050919050565b600082825260208201905092915050565b60006107248261072b565b9050919050565b600073ffffffffffffffffffffffffffffffffffffffff82169050919050565b6000819050919050565b600060ff82169050919050565b60005b83811015610780578082015181840152602081019050610765565b8381111561078f576000848401525b50505050565b600060028204905060018216806107ad57607f821691505b602082108114156107c1576107c06107c7565b5b50919050565b7f4e487b7100000000000000000000000000000000000000000000000000000000600052602260045260246000fd5b6000601f19601f8301169050919050565b61081081610719565b811461081b57600080fd5b50565b6108278161074b565b811461083257600080fd5b5056fea264697066735822122078d8528bf4ca4e77cdaa65b8c98336234bac9777512b47d7a9b19fddb40132ee64736f6c63430008000033",
  "immutableReferences": {},
  "source": "// SPDX-License-Identifier: MIT\r\npragma solidity >=0.4.22 <0.9.0;\r\n\r\nimport \"./Owner.sol\";\r\nimport \"./SafeMath.sol\";\r\n\r\ncontract PollHelper is Owner {\r\n    struct Vote {\r\n        address Voter;\r\n        uint8 Opinion;\r\n        uint256 Date;\r\n    }\r\n\r\n    struct Poll {\r\n        address Owner;\r\n        string Title;\r\n        string[] Options;\r\n        uint256 ExpireDate;\r\n        uint256 InsertionDate;\r\n        uint256 VotesCount;\r\n    }\r\n\r\n    using SafeMath for uint256;\r\n\r\n    uint256 public TotalVotes;\r\n\r\n    uint8 internal ExpireAfter = 1;\r\n    uint8 public MaxPollsPerAddress = 5;\r\n    uint8 internal MaxPollOptions = 32;\r\n\r\n    mapping(address => uint8) public addressToPollCount;\r\n    mapping(uint256 => Vote[]) public pollIdToVotes;\r\n\r\n    Poll[] public Polls;\r\n\r\n    // Looping over Votes of a specific poll to see if we can find someone with the same address.\r\n    function _isVoted(address _voter, uint256 _pollId)\r\n        private\r\n        view\r\n        returns (bool)\r\n    {\r\n        bool _res = false;\r\n        uint256 _pollVotesCount = pollIdToVotes[_pollId].length;\r\n        if (_pollVotesCount == 0) return _res;\r\n        Vote[] memory _pollVotes = pollIdToVotes[_pollId];\r\n\r\n        for (uint256 i = 0; i < _pollVotesCount; i++) {\r\n            if (_pollVotes[i].Voter == _voter) _res = true;\r\n        }\r\n        return _res;\r\n    }\r\n\r\n    function isStringEmpty(string memory _input) internal pure returns (bool) {\r\n        bytes memory b = bytes(_input);\r\n        if (b.length == 0) return true;\r\n        else return false;\r\n    }\r\n\r\n    function compareStrings(string memory a, string memory b)\r\n        internal\r\n        pure\r\n        returns (bool)\r\n    {\r\n        return (keccak256(abi.encodePacked((a))) ==\r\n            keccak256(abi.encodePacked((b))));\r\n    }\r\n\r\n    // This modifier will prevent someone(address) from voting twice.\r\n    modifier voteOnce(uint256 _pollId) {\r\n        require(\r\n            !_isVoted(msg.sender, _pollId),\r\n            \"You have already voted for this poll!\"\r\n        );\r\n        _;\r\n    }\r\n\r\n    modifier pollLimit() {\r\n        require(\r\n            addressToPollCount[msg.sender] < MaxPollsPerAddress,\r\n            \"You have reached max poll per address!\"\r\n        );\r\n        _;\r\n    }\r\n\r\n    // function _isOptionValid(uint256 _option) private view returns (bool) {\r\n    //     return (_option >= 0 && _option <= MaxPollOptions);\r\n    // }\r\n\r\n    modifier validatePollId(uint256 _pollId) {\r\n        require(_pollId < Polls.length, \"Invalid PollId :/\");\r\n        _;\r\n    }\r\n\r\n    modifier validateOption(uint256 _pollId, uint256 _option) {\r\n        uint256 pollLength = Polls[_pollId].Options.length;\r\n        require(_option >= 0 && _option <= pollLength, \"Invalid Option :(\");\r\n        _;\r\n    }\r\n\r\n    event NewPoll(\r\n        uint256 _pollId,\r\n        string _title,\r\n        string[] _options,\r\n        uint256 _expireDate,\r\n        uint256 _insertionDate\r\n    );\r\n\r\n    event NewVote(uint256 indexed _pollId, uint8 _option);\r\n}\r\n",
  "sourcePath": "D:\\Dev\\GitHub\\yt-deapp-poll-station-test\\backend\\contracts\\PollHelper.sol",
  "compiler": {
    "name": "solc",
    "version": "0.8.0+commit.c7dfd78e.Emscripten.clang"
  },
  "schemaVersion": "3.4.6",
  "updatedAt": "2022-04-02T08:40:08.882Z",
  "devdoc": {
    "kind": "dev",
    "methods": {
      "changeOwner(address)": {
        "details": "Change owner",
        "params": {
          "newOwner": "address of new owner"
        }
      },
      "getOwner()": {
        "details": "Return owner address ",
        "returns": {
          "_0": "address of owner"
        }
      }
    },
    "version": 1
  },
  "userdoc": {
    "kind": "user",
    "methods": {},
    "version": 1
  }
}